{
	"contracts/4_Deploy.sol": {
		"testDeploy": {
			"abi": [
				{
					"anonymous": false,
					"inputs": [
						{
							"indexed": false,
							"internalType": "bool",
							"name": "success",
							"type": "bool"
						}
					],
					"name": "Authenticated",
					"type": "event"
				},
				{
					"anonymous": false,
					"inputs": [
						{
							"indexed": false,
							"internalType": "bool",
							"name": "success",
							"type": "bool"
						}
					],
					"name": "CommitStored",
					"type": "event"
				},
				{
					"anonymous": false,
					"inputs": [
						{
							"indexed": false,
							"internalType": "bool",
							"name": "success",
							"type": "bool"
						}
					],
					"name": "ValuesStored",
					"type": "event"
				},
				{
					"inputs": [
						{
							"internalType": "uint256",
							"name": "t",
							"type": "uint256"
						},
						{
							"internalType": "bytes32",
							"name": "hashedOTP",
							"type": "bytes32"
						}
					],
					"name": "authenticate",
					"outputs": [
						{
							"internalType": "bool",
							"name": "",
							"type": "bool"
						}
					],
					"stateMutability": "nonpayable",
					"type": "function"
				},
				{
					"inputs": [
						{
							"internalType": "bytes32",
							"name": "_commitment",
							"type": "bytes32"
						}
					],
					"name": "storeCommitment",
					"outputs": [
						{
							"internalType": "bool",
							"name": "",
							"type": "bool"
						}
					],
					"stateMutability": "nonpayable",
					"type": "function"
				},
				{
					"inputs": [
						{
							"internalType": "uint256",
							"name": "_tinit",
							"type": "uint256"
						},
						{
							"internalType": "uint256",
							"name": "_k",
							"type": "uint256"
						},
						{
							"internalType": "uint32",
							"name": "_id",
							"type": "uint32"
						},
						{
							"internalType": "bytes32",
							"name": "rootHash",
							"type": "bytes32"
						}
					],
					"name": "storeValues",
					"outputs": [
						{
							"internalType": "bool",
							"name": "",
							"type": "bool"
						}
					],
					"stateMutability": "nonpayable",
					"type": "function"
				}
			],
			"devdoc": {
				"kind": "dev",
				"methods": {},
				"version": 1
			},
			"evm": {
				"assembly": "    /* \"contracts/4_Deploy.sol\":73:1820  contract testDeploy {... */\n  mstore(0x40, 0x80)\n  callvalue\n  dup1\n  iszero\n  tag_1\n  jumpi\n  0x00\n  dup1\n  revert\ntag_1:\n  pop\n  dataSize(sub_0)\n  dup1\n  dataOffset(sub_0)\n  0x00\n  codecopy\n  0x00\n  return\nstop\n\nsub_0: assembly {\n        /* \"contracts/4_Deploy.sol\":73:1820  contract testDeploy {... */\n      mstore(0x40, 0x80)\n      callvalue\n      dup1\n      iszero\n      tag_1\n      jumpi\n      0x00\n      dup1\n      revert\n    tag_1:\n      pop\n      jumpi(tag_2, lt(calldatasize, 0x04))\n      shr(0xe0, calldataload(0x00))\n      dup1\n      0x377d2778\n      eq\n      tag_3\n      jumpi\n      dup1\n      0x4ec9d9a3\n      eq\n      tag_4\n      jumpi\n      dup1\n      0x7abd1920\n      eq\n      tag_5\n      jumpi\n    tag_2:\n      0x00\n      dup1\n      revert\n        /* \"contracts/4_Deploy.sol\":666:827  function storeCommitment(bytes32 _commitment) public returns (bool) {... */\n    tag_3:\n      tag_6\n      0x04\n      dup1\n      calldatasize\n      sub\n      dup2\n      add\n      swap1\n      tag_7\n      swap2\n      swap1\n      tag_8\n      jump\t// in\n    tag_7:\n      tag_9\n      jump\t// in\n    tag_6:\n      mload(0x40)\n      tag_10\n      swap2\n      swap1\n      tag_11\n      jump\t// in\n    tag_10:\n      mload(0x40)\n      dup1\n      swap2\n      sub\n      swap1\n      return\n        /* \"contracts/4_Deploy.sol\":1047:1818  function authenticate(uint256 t, bytes32 hashedOTP) public returns (bool) {... */\n    tag_4:\n      tag_12\n      0x04\n      dup1\n      calldatasize\n      sub\n      dup2\n      add\n      swap1\n      tag_13\n      swap2\n      swap1\n      tag_14\n      jump\t// in\n    tag_13:\n      tag_15\n      jump\t// in\n    tag_12:\n      mload(0x40)\n      tag_16\n      swap2\n      swap1\n      tag_11\n      jump\t// in\n    tag_16:\n      mload(0x40)\n      dup1\n      swap2\n      sub\n      swap1\n      return\n        /* \"contracts/4_Deploy.sol\":366:661  function storeValues(uint256 _tinit, uint256 _k, uint32 _id, bytes32 rootHash) public returns (bool) {... */\n    tag_5:\n      tag_17\n      0x04\n      dup1\n      calldatasize\n      sub\n      dup2\n      add\n      swap1\n      tag_18\n      swap2\n      swap1\n      tag_19\n      jump\t// in\n    tag_18:\n      tag_20\n      jump\t// in\n    tag_17:\n      mload(0x40)\n      tag_21\n      swap2\n      swap1\n      tag_11\n      jump\t// in\n    tag_21:\n      mload(0x40)\n      dup1\n      swap2\n      sub\n      swap1\n      return\n        /* \"contracts/4_Deploy.sol\":666:827  function storeCommitment(bytes32 _commitment) public returns (bool) {... */\n    tag_9:\n        /* \"contracts/4_Deploy.sol\":728:732  bool */\n      0x00\n        /* \"contracts/4_Deploy.sol\":755:766  _commitment */\n      dup2\n        /* \"contracts/4_Deploy.sol\":744:754  commitment */\n      0x07\n        /* \"contracts/4_Deploy.sol\":744:766  commitment=_commitment */\n      dup2\n      swap1\n      sstore\n      pop\n        /* \"contracts/4_Deploy.sol\":781:799  CommitStored(true) */\n      0x7a23ff858b2c8a8c6efb2f031504172edceb8544de64bcf8642527ef9e579837\n        /* \"contracts/4_Deploy.sol\":794:798  true */\n      0x01\n        /* \"contracts/4_Deploy.sol\":781:799  CommitStored(true) */\n      mload(0x40)\n      tag_23\n      swap2\n      swap1\n      tag_11\n      jump\t// in\n    tag_23:\n      mload(0x40)\n      dup1\n      swap2\n      sub\n      swap1\n      log1\n        /* \"contracts/4_Deploy.sol\":816:820  true */\n      0x01\n        /* \"contracts/4_Deploy.sol\":809:820  return true */\n      swap1\n      pop\n        /* \"contracts/4_Deploy.sol\":666:827  function storeCommitment(bytes32 _commitment) public returns (bool) {... */\n      swap2\n      swap1\n      pop\n      jump\t// out\n        /* \"contracts/4_Deploy.sol\":1047:1818  function authenticate(uint256 t, bytes32 hashedOTP) public returns (bool) {... */\n    tag_15:\n        /* \"contracts/4_Deploy.sol\":1115:1119  bool */\n      0x00\n        /* \"contracts/4_Deploy.sol\":1131:1143  bool success */\n      dup1\n        /* \"contracts/4_Deploy.sol\":1146:1151  false */\n      0x00\n        /* \"contracts/4_Deploy.sol\":1131:1151  bool success = false */\n      swap1\n      pop\n        /* \"contracts/4_Deploy.sol\":1161:1173  bytes32 temp */\n      0x00\n        /* \"contracts/4_Deploy.sol\":1176:1211  sha256(abi.encodePacked(hashedOTP)) */\n      0x02\n        /* \"contracts/4_Deploy.sol\":1200:1209  hashedOTP */\n      dup5\n        /* \"contracts/4_Deploy.sol\":1183:1210  abi.encodePacked(hashedOTP) */\n      add(0x20, mload(0x40))\n      tag_25\n      swap2\n      swap1\n      tag_26\n      jump\t// in\n    tag_25:\n      mload(0x40)\n      0x20\n      dup2\n      dup4\n      sub\n      sub\n      dup2\n      mstore\n      swap1\n      0x40\n      mstore\n        /* \"contracts/4_Deploy.sol\":1176:1211  sha256(abi.encodePacked(hashedOTP)) */\n      mload(0x40)\n      tag_27\n      swap2\n      swap1\n      tag_28\n      jump\t// in\n    tag_27:\n      0x20\n      mload(0x40)\n      dup1\n      dup4\n      sub\n      dup2\n      dup6\n      gas\n      staticcall\n      iszero\n      dup1\n      iszero\n      tag_30\n      jumpi\n      returndatasize\n      0x00\n      dup1\n      returndatacopy\n      revert(0x00, returndatasize)\n    tag_30:\n      pop\n      pop\n      pop\n      mload(0x40)\n      returndatasize\n      not(0x1f)\n      0x1f\n      dup3\n      add\n      and\n      dup3\n      add\n      dup1\n      0x40\n      mstore\n      pop\n      dup2\n      add\n      swap1\n      tag_31\n      swap2\n      swap1\n      tag_32\n      jump\t// in\n    tag_31:\n        /* \"contracts/4_Deploy.sol\":1161:1211  bytes32 temp = sha256(abi.encodePacked(hashedOTP)) */\n      swap1\n      pop\n        /* \"contracts/4_Deploy.sol\":1233:1243  commitment */\n      sload(0x07)\n        /* \"contracts/4_Deploy.sol\":1225:1229  temp */\n      dup2\n        /* \"contracts/4_Deploy.sol\":1225:1243  temp != commitment */\n      eq\n        /* \"contracts/4_Deploy.sol\":1221:1321  if (temp != commitment) {... */\n      tag_33\n      jumpi\n        /* \"contracts/4_Deploy.sol\":1264:1284  Authenticated(false) */\n      0x718653f3e56f280849da8b5b309f4664be125f81f3f3074d4bb5da989f9769cd\n        /* \"contracts/4_Deploy.sol\":1278:1283  false */\n      0x00\n        /* \"contracts/4_Deploy.sol\":1264:1284  Authenticated(false) */\n      mload(0x40)\n      tag_34\n      swap2\n      swap1\n      tag_11\n      jump\t// in\n    tag_34:\n      mload(0x40)\n      dup1\n      swap2\n      sub\n      swap1\n      log1\n        /* \"contracts/4_Deploy.sol\":1305:1310  false */\n      0x00\n        /* \"contracts/4_Deploy.sol\":1298:1310  return false */\n      swap3\n      pop\n      pop\n      pop\n      jump(tag_24)\n        /* \"contracts/4_Deploy.sol\":1221:1321  if (temp != commitment) {... */\n    tag_33:\n        /* \"contracts/4_Deploy.sol\":1340:1341  0 */\n      0x00\n        /* \"contracts/4_Deploy.sol\":1336:1337  t */\n      dup6\n        /* \"contracts/4_Deploy.sol\":1336:1341  t > 0 */\n      gt\n        /* \"contracts/4_Deploy.sol\":1336:1355  t > 0 && t >= tprev */\n      dup1\n      iszero\n      tag_35\n      jumpi\n      pop\n        /* \"contracts/4_Deploy.sol\":1350:1355  tprev */\n      sload(0x04)\n        /* \"contracts/4_Deploy.sol\":1345:1346  t */\n      dup6\n        /* \"contracts/4_Deploy.sol\":1345:1355  t >= tprev */\n      lt\n      iszero\n        /* \"contracts/4_Deploy.sol\":1336:1355  t > 0 && t >= tprev */\n    tag_35:\n        /* \"contracts/4_Deploy.sol\":1336:1368  t > 0 && t >= tprev && t <= tmax */\n      dup1\n      iszero\n      tag_36\n      jumpi\n      pop\n        /* \"contracts/4_Deploy.sol\":1364:1368  tmax */\n      sload(0x06)\n        /* \"contracts/4_Deploy.sol\":1359:1360  t */\n      dup6\n        /* \"contracts/4_Deploy.sol\":1359:1368  t <= tmax */\n      gt\n      iszero\n        /* \"contracts/4_Deploy.sol\":1336:1368  t > 0 && t >= tprev && t <= tmax */\n    tag_36:\n        /* \"contracts/4_Deploy.sol\":1330:1447  if (!(t > 0 && t >= tprev && t <= tmax)) {... */\n      tag_37\n      jumpi\n        /* \"contracts/4_Deploy.sol\":1390:1410  Authenticated(false) */\n      0x718653f3e56f280849da8b5b309f4664be125f81f3f3074d4bb5da989f9769cd\n        /* \"contracts/4_Deploy.sol\":1404:1409  false */\n      0x00\n        /* \"contracts/4_Deploy.sol\":1390:1410  Authenticated(false) */\n      mload(0x40)\n      tag_38\n      swap2\n      swap1\n      tag_11\n      jump\t// in\n    tag_38:\n      mload(0x40)\n      dup1\n      swap2\n      sub\n      swap1\n      log1\n        /* \"contracts/4_Deploy.sol\":1431:1436  false */\n      0x00\n        /* \"contracts/4_Deploy.sol\":1424:1436  return false */\n      swap3\n      pop\n      pop\n      pop\n      jump(tag_24)\n        /* \"contracts/4_Deploy.sol\":1330:1447  if (!(t > 0 && t >= tprev && t <= tmax)) {... */\n    tag_37:\n        /* \"contracts/4_Deploy.sol\":1466:1475  hashedOTP */\n      dup4\n        /* \"contracts/4_Deploy.sol\":1456:1463  pverify */\n      0x05\n        /* \"contracts/4_Deploy.sol\":1456:1475  pverify = hashedOTP */\n      dup2\n      swap1\n      sstore\n      pop\n        /* \"contracts/4_Deploy.sol\":1490:1499  uint256 i */\n      0x00\n        /* \"contracts/4_Deploy.sol\":1513:1514  1 */\n      0x01\n        /* \"contracts/4_Deploy.sol\":1509:1510  t */\n      dup7\n        /* \"contracts/4_Deploy.sol\":1502:1506  tmax */\n      sload(0x06)\n        /* \"contracts/4_Deploy.sol\":1502:1510  tmax - t */\n      tag_42\n      swap2\n      swap1\n      tag_43\n      jump\t// in\n    tag_42:\n        /* \"contracts/4_Deploy.sol\":1502:1514  tmax - t + 1 */\n      tag_44\n      swap2\n      swap1\n      tag_45\n      jump\t// in\n    tag_44:\n        /* \"contracts/4_Deploy.sol\":1490:1514  uint256 i = tmax - t + 1 */\n      swap1\n      pop\n        /* \"contracts/4_Deploy.sol\":1485:1751  for (uint256 i = tmax - t + 1; i <= tmax - tprev; i++) {... */\n    tag_39:\n        /* \"contracts/4_Deploy.sol\":1528:1533  tprev */\n      sload(0x04)\n        /* \"contracts/4_Deploy.sol\":1521:1525  tmax */\n      sload(0x06)\n        /* \"contracts/4_Deploy.sol\":1521:1533  tmax - tprev */\n      tag_46\n      swap2\n      swap1\n      tag_43\n      jump\t// in\n    tag_46:\n        /* \"contracts/4_Deploy.sol\":1516:1517  i */\n      dup2\n        /* \"contracts/4_Deploy.sol\":1516:1533  i <= tmax - tprev */\n      gt\n        /* \"contracts/4_Deploy.sol\":1485:1751  for (uint256 i = tmax - t + 1; i <= tmax - tprev; i++) {... */\n      tag_40\n      jumpi\n        /* \"contracts/4_Deploy.sol\":1564:1596  generateHashFunction(i, pverify) */\n      tag_47\n        /* \"contracts/4_Deploy.sol\":1585:1586  i */\n      dup2\n        /* \"contracts/4_Deploy.sol\":1588:1595  pverify */\n      sload(0x05)\n        /* \"contracts/4_Deploy.sol\":1564:1584  generateHashFunction */\n      tag_48\n        /* \"contracts/4_Deploy.sol\":1564:1596  generateHashFunction(i, pverify) */\n      jump\t// in\n    tag_47:\n        /* \"contracts/4_Deploy.sol\":1554:1561  pverify */\n      0x05\n        /* \"contracts/4_Deploy.sol\":1554:1596  pverify = generateHashFunction(i, pverify) */\n      dup2\n      swap1\n      sstore\n      pop\n        /* \"contracts/4_Deploy.sol\":1623:1630  pverify */\n      sload(0x05)\n        /* \"contracts/4_Deploy.sol\":1614:1619  pprev */\n      sload(0x00)\n        /* \"contracts/4_Deploy.sol\":1614:1630  pprev == pverify */\n      sub\n        /* \"contracts/4_Deploy.sol\":1610:1741  if (pprev == pverify) {... */\n      tag_49\n      jumpi\n        /* \"contracts/4_Deploy.sol\":1658:1667  hashedOTP */\n      dup5\n        /* \"contracts/4_Deploy.sol\":1650:1655  pprev */\n      0x00\n        /* \"contracts/4_Deploy.sol\":1650:1667  pprev = hashedOTP */\n      dup2\n      swap1\n      sstore\n      pop\n        /* \"contracts/4_Deploy.sol\":1693:1694  t */\n      dup6\n        /* \"contracts/4_Deploy.sol\":1685:1690  tprev */\n      0x04\n        /* \"contracts/4_Deploy.sol\":1685:1694  tprev = t */\n      dup2\n      swap1\n      sstore\n      pop\n        /* \"contracts/4_Deploy.sol\":1722:1726  true */\n      0x01\n        /* \"contracts/4_Deploy.sol\":1712:1726  success = true */\n      swap3\n      pop\n        /* \"contracts/4_Deploy.sol\":1610:1741  if (pprev == pverify) {... */\n    tag_49:\n        /* \"contracts/4_Deploy.sol\":1535:1538  i++ */\n      dup1\n      dup1\n      tag_50\n      swap1\n      tag_51\n      jump\t// in\n    tag_50:\n      swap2\n      pop\n      pop\n        /* \"contracts/4_Deploy.sol\":1485:1751  for (uint256 i = tmax - t + 1; i <= tmax - tprev; i++) {... */\n      jump(tag_39)\n    tag_40:\n      pop\n        /* \"contracts/4_Deploy.sol\":1765:1787  Authenticated(success) */\n      0x718653f3e56f280849da8b5b309f4664be125f81f3f3074d4bb5da989f9769cd\n        /* \"contracts/4_Deploy.sol\":1779:1786  success */\n      dup3\n        /* \"contracts/4_Deploy.sol\":1765:1787  Authenticated(success) */\n      mload(0x40)\n      tag_52\n      swap2\n      swap1\n      tag_11\n      jump\t// in\n    tag_52:\n      mload(0x40)\n      dup1\n      swap2\n      sub\n      swap1\n      log1\n        /* \"contracts/4_Deploy.sol\":1804:1811  success */\n      dup2\n        /* \"contracts/4_Deploy.sol\":1797:1811  return success */\n      swap3\n      pop\n      pop\n      pop\n        /* \"contracts/4_Deploy.sol\":1047:1818  function authenticate(uint256 t, bytes32 hashedOTP) public returns (bool) {... */\n    tag_24:\n      swap3\n      swap2\n      pop\n      pop\n      jump\t// out\n        /* \"contracts/4_Deploy.sol\":366:661  function storeValues(uint256 _tinit, uint256 _k, uint32 _id, bytes32 rootHash) public returns (bool) {... */\n    tag_20:\n        /* \"contracts/4_Deploy.sol\":461:465  bool */\n      0x00\n        /* \"contracts/4_Deploy.sol\":485:493  rootHash */\n      dup2\n        /* \"contracts/4_Deploy.sol\":477:482  pprev */\n      0x00\n        /* \"contracts/4_Deploy.sol\":477:493  pprev = rootHash */\n      dup2\n      swap1\n      sstore\n      pop\n        /* \"contracts/4_Deploy.sol\":511:517  _tinit */\n      dup5\n        /* \"contracts/4_Deploy.sol\":503:508  tinit */\n      0x03\n        /* \"contracts/4_Deploy.sol\":503:517  tinit = _tinit */\n      dup2\n      swap1\n      sstore\n      pop\n        /* \"contracts/4_Deploy.sol\":535:540  tinit */\n      sload(0x03)\n        /* \"contracts/4_Deploy.sol\":527:532  tprev */\n      0x04\n        /* \"contracts/4_Deploy.sol\":527:540  tprev = tinit */\n      dup2\n      swap1\n      sstore\n      pop\n        /* \"contracts/4_Deploy.sol\":554:556  _k */\n      dup4\n        /* \"contracts/4_Deploy.sol\":550:551  k */\n      0x02\n        /* \"contracts/4_Deploy.sol\":550:556  k = _k */\n      dup2\n      swap1\n      sstore\n      pop\n        /* \"contracts/4_Deploy.sol\":571:574  _id */\n      dup3\n        /* \"contracts/4_Deploy.sol\":566:568  id */\n      0x01\n      0x00\n        /* \"contracts/4_Deploy.sol\":566:574  id = _id */\n      0x0100\n      exp\n      dup2\n      sload\n      dup2\n      0xffffffff\n      mul\n      not\n      and\n      swap1\n      dup4\n      0xffffffff\n      and\n      mul\n      or\n      swap1\n      sstore\n      pop\n        /* \"contracts/4_Deploy.sol\":599:600  k */\n      sload(0x02)\n        /* \"contracts/4_Deploy.sol\":591:596  tinit */\n      sload(0x03)\n        /* \"contracts/4_Deploy.sol\":591:600  tinit + k */\n      tag_54\n      swap2\n      swap1\n      tag_45\n      jump\t// in\n    tag_54:\n        /* \"contracts/4_Deploy.sol\":584:588  tmax */\n      0x06\n        /* \"contracts/4_Deploy.sol\":584:600  tmax = tinit + k */\n      dup2\n      swap1\n      sstore\n      pop\n        /* \"contracts/4_Deploy.sol\":615:633  ValuesStored(true) */\n      0xb45a9ce1967908c1f14416e3f7b42d2e8028366bd17869b344dd26960f0c0e61\n        /* \"contracts/4_Deploy.sol\":628:632  true */\n      0x01\n        /* \"contracts/4_Deploy.sol\":615:633  ValuesStored(true) */\n      mload(0x40)\n      tag_55\n      swap2\n      swap1\n      tag_11\n      jump\t// in\n    tag_55:\n      mload(0x40)\n      dup1\n      swap2\n      sub\n      swap1\n      log1\n        /* \"contracts/4_Deploy.sol\":650:654  true */\n      0x01\n        /* \"contracts/4_Deploy.sol\":643:654  return true */\n      swap1\n      pop\n        /* \"contracts/4_Deploy.sol\":366:661  function storeValues(uint256 _tinit, uint256 _k, uint32 _id, bytes32 rootHash) public returns (bool) {... */\n      swap5\n      swap4\n      pop\n      pop\n      pop\n      pop\n      jump\t// out\n        /* \"contracts/4_Deploy.sol\":835:1041  function generateHashFunction(uint256 i, bytes32 x) internal view returns (bytes32) {... */\n    tag_48:\n        /* \"contracts/4_Deploy.sol\":910:917  bytes32 */\n      0x00\n        /* \"contracts/4_Deploy.sol\":929:938  uint256 y */\n      dup1\n        /* \"contracts/4_Deploy.sol\":953:954  i */\n      dup4\n        /* \"contracts/4_Deploy.sol\":949:950  k */\n      sload(0x02)\n        /* \"contracts/4_Deploy.sol\":941:946  tinit */\n      sload(0x03)\n        /* \"contracts/4_Deploy.sol\":941:950  tinit + k */\n      tag_57\n      swap2\n      swap1\n      tag_45\n      jump\t// in\n    tag_57:\n        /* \"contracts/4_Deploy.sol\":941:954  tinit + k - i */\n      tag_58\n      swap2\n      swap1\n      tag_43\n      jump\t// in\n    tag_58:\n        /* \"contracts/4_Deploy.sol\":929:954  uint256 y = tinit + k - i */\n      swap1\n      pop\n        /* \"contracts/4_Deploy.sol\":964:976  bytes32 root */\n      0x00\n        /* \"contracts/4_Deploy.sol\":979:1013  sha256(abi.encodePacked(y, id, x)) */\n      0x02\n        /* \"contracts/4_Deploy.sol\":1003:1004  y */\n      dup3\n        /* \"contracts/4_Deploy.sol\":1006:1008  id */\n      0x01\n      0x00\n      swap1\n      sload\n      swap1\n      0x0100\n      exp\n      swap1\n      div\n      0xffffffff\n      and\n        /* \"contracts/4_Deploy.sol\":1010:1011  x */\n      dup7\n        /* \"contracts/4_Deploy.sol\":986:1012  abi.encodePacked(y, id, x) */\n      add(0x20, mload(0x40))\n      tag_59\n      swap4\n      swap3\n      swap2\n      swap1\n      tag_60\n      jump\t// in\n    tag_59:\n      mload(0x40)\n      0x20\n      dup2\n      dup4\n      sub\n      sub\n      dup2\n      mstore\n      swap1\n      0x40\n      mstore\n        /* \"contracts/4_Deploy.sol\":979:1013  sha256(abi.encodePacked(y, id, x)) */\n      mload(0x40)\n      tag_61\n      swap2\n      swap1\n      tag_28\n      jump\t// in\n    tag_61:\n      0x20\n      mload(0x40)\n      dup1\n      dup4\n      sub\n      dup2\n      dup6\n      gas\n      staticcall\n      iszero\n      dup1\n      iszero\n      tag_63\n      jumpi\n      returndatasize\n      0x00\n      dup1\n      returndatacopy\n      revert(0x00, returndatasize)\n    tag_63:\n      pop\n      pop\n      pop\n      mload(0x40)\n      returndatasize\n      not(0x1f)\n      0x1f\n      dup3\n      add\n      and\n      dup3\n      add\n      dup1\n      0x40\n      mstore\n      pop\n      dup2\n      add\n      swap1\n      tag_64\n      swap2\n      swap1\n      tag_32\n      jump\t// in\n    tag_64:\n        /* \"contracts/4_Deploy.sol\":964:1013  bytes32 root = sha256(abi.encodePacked(y, id, x)) */\n      swap1\n      pop\n        /* \"contracts/4_Deploy.sol\":1030:1034  root */\n      dup1\n        /* \"contracts/4_Deploy.sol\":1023:1034  return root */\n      swap3\n      pop\n      pop\n      pop\n        /* \"contracts/4_Deploy.sol\":835:1041  function generateHashFunction(uint256 i, bytes32 x) internal view returns (bytes32) {... */\n      swap3\n      swap2\n      pop\n      pop\n      jump\t// out\n        /* \"#utility.yul\":88:205   */\n    tag_66:\n        /* \"#utility.yul\":197:198   */\n      0x00\n        /* \"#utility.yul\":194:195   */\n      dup1\n        /* \"#utility.yul\":187:199   */\n      revert\n        /* \"#utility.yul\":334:411   */\n    tag_68:\n        /* \"#utility.yul\":371:378   */\n      0x00\n        /* \"#utility.yul\":400:405   */\n      dup2\n        /* \"#utility.yul\":389:405   */\n      swap1\n      pop\n        /* \"#utility.yul\":334:411   */\n      swap2\n      swap1\n      pop\n      jump\t// out\n        /* \"#utility.yul\":417:539   */\n    tag_69:\n        /* \"#utility.yul\":490:514   */\n      tag_98\n        /* \"#utility.yul\":508:513   */\n      dup2\n        /* \"#utility.yul\":490:514   */\n      tag_68\n      jump\t// in\n    tag_98:\n        /* \"#utility.yul\":483:488   */\n      dup2\n        /* \"#utility.yul\":480:515   */\n      eq\n        /* \"#utility.yul\":470:533   */\n      tag_99\n      jumpi\n        /* \"#utility.yul\":529:530   */\n      0x00\n        /* \"#utility.yul\":526:527   */\n      dup1\n        /* \"#utility.yul\":519:531   */\n      revert\n        /* \"#utility.yul\":470:533   */\n    tag_99:\n        /* \"#utility.yul\":417:539   */\n      pop\n      jump\t// out\n        /* \"#utility.yul\":545:684   */\n    tag_70:\n        /* \"#utility.yul\":591:596   */\n      0x00\n        /* \"#utility.yul\":629:635   */\n      dup2\n        /* \"#utility.yul\":616:636   */\n      calldataload\n        /* \"#utility.yul\":607:636   */\n      swap1\n      pop\n        /* \"#utility.yul\":645:678   */\n      tag_101\n        /* \"#utility.yul\":672:677   */\n      dup2\n        /* \"#utility.yul\":645:678   */\n      tag_69\n      jump\t// in\n    tag_101:\n        /* \"#utility.yul\":545:684   */\n      swap3\n      swap2\n      pop\n      pop\n      jump\t// out\n        /* \"#utility.yul\":690:1019   */\n    tag_8:\n        /* \"#utility.yul\":749:755   */\n      0x00\n        /* \"#utility.yul\":798:800   */\n      0x20\n        /* \"#utility.yul\":786:795   */\n      dup3\n        /* \"#utility.yul\":777:784   */\n      dup5\n        /* \"#utility.yul\":773:796   */\n      sub\n        /* \"#utility.yul\":769:801   */\n      slt\n        /* \"#utility.yul\":766:885   */\n      iszero\n      tag_103\n      jumpi\n        /* \"#utility.yul\":804:883   */\n      tag_104\n      tag_66\n      jump\t// in\n    tag_104:\n        /* \"#utility.yul\":766:885   */\n    tag_103:\n        /* \"#utility.yul\":924:925   */\n      0x00\n        /* \"#utility.yul\":949:1002   */\n      tag_105\n        /* \"#utility.yul\":994:1001   */\n      dup5\n        /* \"#utility.yul\":985:991   */\n      dup3\n        /* \"#utility.yul\":974:983   */\n      dup6\n        /* \"#utility.yul\":970:992   */\n      add\n        /* \"#utility.yul\":949:1002   */\n      tag_70\n      jump\t// in\n    tag_105:\n        /* \"#utility.yul\":939:1002   */\n      swap2\n      pop\n        /* \"#utility.yul\":895:1012   */\n      pop\n        /* \"#utility.yul\":690:1019   */\n      swap3\n      swap2\n      pop\n      pop\n      jump\t// out\n        /* \"#utility.yul\":1025:1115   */\n    tag_71:\n        /* \"#utility.yul\":1059:1066   */\n      0x00\n        /* \"#utility.yul\":1102:1107   */\n      dup2\n        /* \"#utility.yul\":1095:1108   */\n      iszero\n        /* \"#utility.yul\":1088:1109   */\n      iszero\n        /* \"#utility.yul\":1077:1109   */\n      swap1\n      pop\n        /* \"#utility.yul\":1025:1115   */\n      swap2\n      swap1\n      pop\n      jump\t// out\n        /* \"#utility.yul\":1121:1230   */\n    tag_72:\n        /* \"#utility.yul\":1202:1223   */\n      tag_108\n        /* \"#utility.yul\":1217:1222   */\n      dup2\n        /* \"#utility.yul\":1202:1223   */\n      tag_71\n      jump\t// in\n    tag_108:\n        /* \"#utility.yul\":1197:1200   */\n      dup3\n        /* \"#utility.yul\":1190:1224   */\n      mstore\n        /* \"#utility.yul\":1121:1230   */\n      pop\n      pop\n      jump\t// out\n        /* \"#utility.yul\":1236:1446   */\n    tag_11:\n        /* \"#utility.yul\":1323:1327   */\n      0x00\n        /* \"#utility.yul\":1361:1363   */\n      0x20\n        /* \"#utility.yul\":1350:1359   */\n      dup3\n        /* \"#utility.yul\":1346:1364   */\n      add\n        /* \"#utility.yul\":1338:1364   */\n      swap1\n      pop\n        /* \"#utility.yul\":1374:1439   */\n      tag_110\n        /* \"#utility.yul\":1436:1437   */\n      0x00\n        /* \"#utility.yul\":1425:1434   */\n      dup4\n        /* \"#utility.yul\":1421:1438   */\n      add\n        /* \"#utility.yul\":1412:1418   */\n      dup5\n        /* \"#utility.yul\":1374:1439   */\n      tag_72\n      jump\t// in\n    tag_110:\n        /* \"#utility.yul\":1236:1446   */\n      swap3\n      swap2\n      pop\n      pop\n      jump\t// out\n        /* \"#utility.yul\":1452:1529   */\n    tag_73:\n        /* \"#utility.yul\":1489:1496   */\n      0x00\n        /* \"#utility.yul\":1518:1523   */\n      dup2\n        /* \"#utility.yul\":1507:1523   */\n      swap1\n      pop\n        /* \"#utility.yul\":1452:1529   */\n      swap2\n      swap1\n      pop\n      jump\t// out\n        /* \"#utility.yul\":1535:1657   */\n    tag_74:\n        /* \"#utility.yul\":1608:1632   */\n      tag_113\n        /* \"#utility.yul\":1626:1631   */\n      dup2\n        /* \"#utility.yul\":1608:1632   */\n      tag_73\n      jump\t// in\n    tag_113:\n        /* \"#utility.yul\":1601:1606   */\n      dup2\n        /* \"#utility.yul\":1598:1633   */\n      eq\n        /* \"#utility.yul\":1588:1651   */\n      tag_114\n      jumpi\n        /* \"#utility.yul\":1647:1648   */\n      0x00\n        /* \"#utility.yul\":1644:1645   */\n      dup1\n        /* \"#utility.yul\":1637:1649   */\n      revert\n        /* \"#utility.yul\":1588:1651   */\n    tag_114:\n        /* \"#utility.yul\":1535:1657   */\n      pop\n      jump\t// out\n        /* \"#utility.yul\":1663:1802   */\n    tag_75:\n        /* \"#utility.yul\":1709:1714   */\n      0x00\n        /* \"#utility.yul\":1747:1753   */\n      dup2\n        /* \"#utility.yul\":1734:1754   */\n      calldataload\n        /* \"#utility.yul\":1725:1754   */\n      swap1\n      pop\n        /* \"#utility.yul\":1763:1796   */\n      tag_116\n        /* \"#utility.yul\":1790:1795   */\n      dup2\n        /* \"#utility.yul\":1763:1796   */\n      tag_74\n      jump\t// in\n    tag_116:\n        /* \"#utility.yul\":1663:1802   */\n      swap3\n      swap2\n      pop\n      pop\n      jump\t// out\n        /* \"#utility.yul\":1808:2282   */\n    tag_14:\n        /* \"#utility.yul\":1876:1882   */\n      0x00\n        /* \"#utility.yul\":1884:1890   */\n      dup1\n        /* \"#utility.yul\":1933:1935   */\n      0x40\n        /* \"#utility.yul\":1921:1930   */\n      dup4\n        /* \"#utility.yul\":1912:1919   */\n      dup6\n        /* \"#utility.yul\":1908:1931   */\n      sub\n        /* \"#utility.yul\":1904:1936   */\n      slt\n        /* \"#utility.yul\":1901:2020   */\n      iszero\n      tag_118\n      jumpi\n        /* \"#utility.yul\":1939:2018   */\n      tag_119\n      tag_66\n      jump\t// in\n    tag_119:\n        /* \"#utility.yul\":1901:2020   */\n    tag_118:\n        /* \"#utility.yul\":2059:2060   */\n      0x00\n        /* \"#utility.yul\":2084:2137   */\n      tag_120\n        /* \"#utility.yul\":2129:2136   */\n      dup6\n        /* \"#utility.yul\":2120:2126   */\n      dup3\n        /* \"#utility.yul\":2109:2118   */\n      dup7\n        /* \"#utility.yul\":2105:2127   */\n      add\n        /* \"#utility.yul\":2084:2137   */\n      tag_75\n      jump\t// in\n    tag_120:\n        /* \"#utility.yul\":2074:2137   */\n      swap3\n      pop\n        /* \"#utility.yul\":2030:2147   */\n      pop\n        /* \"#utility.yul\":2186:2188   */\n      0x20\n        /* \"#utility.yul\":2212:2265   */\n      tag_121\n        /* \"#utility.yul\":2257:2264   */\n      dup6\n        /* \"#utility.yul\":2248:2254   */\n      dup3\n        /* \"#utility.yul\":2237:2246   */\n      dup7\n        /* \"#utility.yul\":2233:2255   */\n      add\n        /* \"#utility.yul\":2212:2265   */\n      tag_70\n      jump\t// in\n    tag_121:\n        /* \"#utility.yul\":2202:2265   */\n      swap2\n      pop\n        /* \"#utility.yul\":2157:2275   */\n      pop\n        /* \"#utility.yul\":1808:2282   */\n      swap3\n      pop\n      swap3\n      swap1\n      pop\n      jump\t// out\n        /* \"#utility.yul\":2288:2381   */\n    tag_76:\n        /* \"#utility.yul\":2324:2331   */\n      0x00\n        /* \"#utility.yul\":2364:2374   */\n      0xffffffff\n        /* \"#utility.yul\":2357:2362   */\n      dup3\n        /* \"#utility.yul\":2353:2375   */\n      and\n        /* \"#utility.yul\":2342:2375   */\n      swap1\n      pop\n        /* \"#utility.yul\":2288:2381   */\n      swap2\n      swap1\n      pop\n      jump\t// out\n        /* \"#utility.yul\":2387:2507   */\n    tag_77:\n        /* \"#utility.yul\":2459:2482   */\n      tag_124\n        /* \"#utility.yul\":2476:2481   */\n      dup2\n        /* \"#utility.yul\":2459:2482   */\n      tag_76\n      jump\t// in\n    tag_124:\n        /* \"#utility.yul\":2452:2457   */\n      dup2\n        /* \"#utility.yul\":2449:2483   */\n      eq\n        /* \"#utility.yul\":2439:2501   */\n      tag_125\n      jumpi\n        /* \"#utility.yul\":2497:2498   */\n      0x00\n        /* \"#utility.yul\":2494:2495   */\n      dup1\n        /* \"#utility.yul\":2487:2499   */\n      revert\n        /* \"#utility.yul\":2439:2501   */\n    tag_125:\n        /* \"#utility.yul\":2387:2507   */\n      pop\n      jump\t// out\n        /* \"#utility.yul\":2513:2650   */\n    tag_78:\n        /* \"#utility.yul\":2558:2563   */\n      0x00\n        /* \"#utility.yul\":2596:2602   */\n      dup2\n        /* \"#utility.yul\":2583:2603   */\n      calldataload\n        /* \"#utility.yul\":2574:2603   */\n      swap1\n      pop\n        /* \"#utility.yul\":2612:2644   */\n      tag_127\n        /* \"#utility.yul\":2638:2643   */\n      dup2\n        /* \"#utility.yul\":2612:2644   */\n      tag_77\n      jump\t// in\n    tag_127:\n        /* \"#utility.yul\":2513:2650   */\n      swap3\n      swap2\n      pop\n      pop\n      jump\t// out\n        /* \"#utility.yul\":2656:3419   */\n    tag_19:\n        /* \"#utility.yul\":2741:2747   */\n      0x00\n        /* \"#utility.yul\":2749:2755   */\n      dup1\n        /* \"#utility.yul\":2757:2763   */\n      0x00\n        /* \"#utility.yul\":2765:2771   */\n      dup1\n        /* \"#utility.yul\":2814:2817   */\n      0x80\n        /* \"#utility.yul\":2802:2811   */\n      dup6\n        /* \"#utility.yul\":2793:2800   */\n      dup8\n        /* \"#utility.yul\":2789:2812   */\n      sub\n        /* \"#utility.yul\":2785:2818   */\n      slt\n        /* \"#utility.yul\":2782:2902   */\n      iszero\n      tag_129\n      jumpi\n        /* \"#utility.yul\":2821:2900   */\n      tag_130\n      tag_66\n      jump\t// in\n    tag_130:\n        /* \"#utility.yul\":2782:2902   */\n    tag_129:\n        /* \"#utility.yul\":2941:2942   */\n      0x00\n        /* \"#utility.yul\":2966:3019   */\n      tag_131\n        /* \"#utility.yul\":3011:3018   */\n      dup8\n        /* \"#utility.yul\":3002:3008   */\n      dup3\n        /* \"#utility.yul\":2991:3000   */\n      dup9\n        /* \"#utility.yul\":2987:3009   */\n      add\n        /* \"#utility.yul\":2966:3019   */\n      tag_75\n      jump\t// in\n    tag_131:\n        /* \"#utility.yul\":2956:3019   */\n      swap5\n      pop\n        /* \"#utility.yul\":2912:3029   */\n      pop\n        /* \"#utility.yul\":3068:3070   */\n      0x20\n        /* \"#utility.yul\":3094:3147   */\n      tag_132\n        /* \"#utility.yul\":3139:3146   */\n      dup8\n        /* \"#utility.yul\":3130:3136   */\n      dup3\n        /* \"#utility.yul\":3119:3128   */\n      dup9\n        /* \"#utility.yul\":3115:3137   */\n      add\n        /* \"#utility.yul\":3094:3147   */\n      tag_75\n      jump\t// in\n    tag_132:\n        /* \"#utility.yul\":3084:3147   */\n      swap4\n      pop\n        /* \"#utility.yul\":3039:3157   */\n      pop\n        /* \"#utility.yul\":3196:3198   */\n      0x40\n        /* \"#utility.yul\":3222:3274   */\n      tag_133\n        /* \"#utility.yul\":3266:3273   */\n      dup8\n        /* \"#utility.yul\":3257:3263   */\n      dup3\n        /* \"#utility.yul\":3246:3255   */\n      dup9\n        /* \"#utility.yul\":3242:3264   */\n      add\n        /* \"#utility.yul\":3222:3274   */\n      tag_78\n      jump\t// in\n    tag_133:\n        /* \"#utility.yul\":3212:3274   */\n      swap3\n      pop\n        /* \"#utility.yul\":3167:3284   */\n      pop\n        /* \"#utility.yul\":3323:3325   */\n      0x60\n        /* \"#utility.yul\":3349:3402   */\n      tag_134\n        /* \"#utility.yul\":3394:3401   */\n      dup8\n        /* \"#utility.yul\":3385:3391   */\n      dup3\n        /* \"#utility.yul\":3374:3383   */\n      dup9\n        /* \"#utility.yul\":3370:3392   */\n      add\n        /* \"#utility.yul\":3349:3402   */\n      tag_70\n      jump\t// in\n    tag_134:\n        /* \"#utility.yul\":3339:3402   */\n      swap2\n      pop\n        /* \"#utility.yul\":3294:3412   */\n      pop\n        /* \"#utility.yul\":2656:3419   */\n      swap3\n      swap6\n      swap2\n      swap5\n      pop\n      swap3\n      pop\n      jump\t// out\n        /* \"#utility.yul\":3425:3504   */\n    tag_79:\n        /* \"#utility.yul\":3464:3471   */\n      0x00\n        /* \"#utility.yul\":3493:3498   */\n      dup2\n        /* \"#utility.yul\":3482:3498   */\n      swap1\n      pop\n        /* \"#utility.yul\":3425:3504   */\n      swap2\n      swap1\n      pop\n      jump\t// out\n        /* \"#utility.yul\":3510:3667   */\n    tag_80:\n        /* \"#utility.yul\":3615:3660   */\n      tag_137\n        /* \"#utility.yul\":3635:3659   */\n      tag_138\n        /* \"#utility.yul\":3653:3658   */\n      dup3\n        /* \"#utility.yul\":3635:3659   */\n      tag_68\n      jump\t// in\n    tag_138:\n        /* \"#utility.yul\":3615:3660   */\n      tag_79\n      jump\t// in\n    tag_137:\n        /* \"#utility.yul\":3610:3613   */\n      dup3\n        /* \"#utility.yul\":3603:3661   */\n      mstore\n        /* \"#utility.yul\":3510:3667   */\n      pop\n      pop\n      jump\t// out\n        /* \"#utility.yul\":3673:3929   */\n    tag_26:\n        /* \"#utility.yul\":3785:3788   */\n      0x00\n        /* \"#utility.yul\":3800:3875   */\n      tag_140\n        /* \"#utility.yul\":3871:3874   */\n      dup3\n        /* \"#utility.yul\":3862:3868   */\n      dup5\n        /* \"#utility.yul\":3800:3875   */\n      tag_80\n      jump\t// in\n    tag_140:\n        /* \"#utility.yul\":3900:3902   */\n      0x20\n        /* \"#utility.yul\":3895:3898   */\n      dup3\n        /* \"#utility.yul\":3891:3903   */\n      add\n        /* \"#utility.yul\":3884:3903   */\n      swap2\n      pop\n        /* \"#utility.yul\":3920:3923   */\n      dup2\n        /* \"#utility.yul\":3913:3923   */\n      swap1\n      pop\n        /* \"#utility.yul\":3673:3929   */\n      swap3\n      swap2\n      pop\n      pop\n      jump\t// out\n        /* \"#utility.yul\":3935:4033   */\n    tag_81:\n        /* \"#utility.yul\":3986:3992   */\n      0x00\n        /* \"#utility.yul\":4020:4025   */\n      dup2\n        /* \"#utility.yul\":4014:4026   */\n      mload\n        /* \"#utility.yul\":4004:4026   */\n      swap1\n      pop\n        /* \"#utility.yul\":3935:4033   */\n      swap2\n      swap1\n      pop\n      jump\t// out\n        /* \"#utility.yul\":4039:4186   */\n    tag_82:\n        /* \"#utility.yul\":4140:4151   */\n      0x00\n        /* \"#utility.yul\":4177:4180   */\n      dup2\n        /* \"#utility.yul\":4162:4180   */\n      swap1\n      pop\n        /* \"#utility.yul\":4039:4186   */\n      swap3\n      swap2\n      pop\n      pop\n      jump\t// out\n        /* \"#utility.yul\":4192:4331   */\n    tag_83:\n        /* \"#utility.yul\":4281:4287   */\n      dup3\n        /* \"#utility.yul\":4276:4279   */\n      dup2\n        /* \"#utility.yul\":4271:4274   */\n      dup4\n        /* \"#utility.yul\":4265:4288   */\n      mcopy\n        /* \"#utility.yul\":4322:4323   */\n      0x00\n        /* \"#utility.yul\":4313:4319   */\n      dup4\n        /* \"#utility.yul\":4308:4311   */\n      dup4\n        /* \"#utility.yul\":4304:4320   */\n      add\n        /* \"#utility.yul\":4297:4324   */\n      mstore\n        /* \"#utility.yul\":4192:4331   */\n      pop\n      pop\n      pop\n      jump\t// out\n        /* \"#utility.yul\":4337:4723   */\n    tag_84:\n        /* \"#utility.yul\":4441:4444   */\n      0x00\n        /* \"#utility.yul\":4469:4507   */\n      tag_145\n        /* \"#utility.yul\":4501:4506   */\n      dup3\n        /* \"#utility.yul\":4469:4507   */\n      tag_81\n      jump\t// in\n    tag_145:\n        /* \"#utility.yul\":4523:4611   */\n      tag_146\n        /* \"#utility.yul\":4604:4610   */\n      dup2\n        /* \"#utility.yul\":4599:4602   */\n      dup6\n        /* \"#utility.yul\":4523:4611   */\n      tag_82\n      jump\t// in\n    tag_146:\n        /* \"#utility.yul\":4516:4611   */\n      swap4\n      pop\n        /* \"#utility.yul\":4620:4685   */\n      tag_147\n        /* \"#utility.yul\":4678:4684   */\n      dup2\n        /* \"#utility.yul\":4673:4676   */\n      dup6\n        /* \"#utility.yul\":4666:4670   */\n      0x20\n        /* \"#utility.yul\":4659:4664   */\n      dup7\n        /* \"#utility.yul\":4655:4671   */\n      add\n        /* \"#utility.yul\":4620:4685   */\n      tag_83\n      jump\t// in\n    tag_147:\n        /* \"#utility.yul\":4710:4716   */\n      dup1\n        /* \"#utility.yul\":4705:4708   */\n      dup5\n        /* \"#utility.yul\":4701:4717   */\n      add\n        /* \"#utility.yul\":4694:4717   */\n      swap2\n      pop\n        /* \"#utility.yul\":4445:4723   */\n      pop\n        /* \"#utility.yul\":4337:4723   */\n      swap3\n      swap2\n      pop\n      pop\n      jump\t// out\n        /* \"#utility.yul\":4729:5000   */\n    tag_28:\n        /* \"#utility.yul\":4859:4862   */\n      0x00\n        /* \"#utility.yul\":4881:4974   */\n      tag_149\n        /* \"#utility.yul\":4970:4973   */\n      dup3\n        /* \"#utility.yul\":4961:4967   */\n      dup5\n        /* \"#utility.yul\":4881:4974   */\n      tag_84\n      jump\t// in\n    tag_149:\n        /* \"#utility.yul\":4874:4974   */\n      swap2\n      pop\n        /* \"#utility.yul\":4991:4994   */\n      dup2\n        /* \"#utility.yul\":4984:4994   */\n      swap1\n      pop\n        /* \"#utility.yul\":4729:5000   */\n      swap3\n      swap2\n      pop\n      pop\n      jump\t// out\n        /* \"#utility.yul\":5006:5149   */\n    tag_85:\n        /* \"#utility.yul\":5063:5068   */\n      0x00\n        /* \"#utility.yul\":5094:5100   */\n      dup2\n        /* \"#utility.yul\":5088:5101   */\n      mload\n        /* \"#utility.yul\":5079:5101   */\n      swap1\n      pop\n        /* \"#utility.yul\":5110:5143   */\n      tag_151\n        /* \"#utility.yul\":5137:5142   */\n      dup2\n        /* \"#utility.yul\":5110:5143   */\n      tag_69\n      jump\t// in\n    tag_151:\n        /* \"#utility.yul\":5006:5149   */\n      swap3\n      swap2\n      pop\n      pop\n      jump\t// out\n        /* \"#utility.yul\":5155:5506   */\n    tag_32:\n        /* \"#utility.yul\":5225:5231   */\n      0x00\n        /* \"#utility.yul\":5274:5276   */\n      0x20\n        /* \"#utility.yul\":5262:5271   */\n      dup3\n        /* \"#utility.yul\":5253:5260   */\n      dup5\n        /* \"#utility.yul\":5249:5272   */\n      sub\n        /* \"#utility.yul\":5245:5277   */\n      slt\n        /* \"#utility.yul\":5242:5361   */\n      iszero\n      tag_153\n      jumpi\n        /* \"#utility.yul\":5280:5359   */\n      tag_154\n      tag_66\n      jump\t// in\n    tag_154:\n        /* \"#utility.yul\":5242:5361   */\n    tag_153:\n        /* \"#utility.yul\":5400:5401   */\n      0x00\n        /* \"#utility.yul\":5425:5489   */\n      tag_155\n        /* \"#utility.yul\":5481:5488   */\n      dup5\n        /* \"#utility.yul\":5472:5478   */\n      dup3\n        /* \"#utility.yul\":5461:5470   */\n      dup6\n        /* \"#utility.yul\":5457:5479   */\n      add\n        /* \"#utility.yul\":5425:5489   */\n      tag_85\n      jump\t// in\n    tag_155:\n        /* \"#utility.yul\":5415:5489   */\n      swap2\n      pop\n        /* \"#utility.yul\":5371:5499   */\n      pop\n        /* \"#utility.yul\":5155:5506   */\n      swap3\n      swap2\n      pop\n      pop\n      jump\t// out\n        /* \"#utility.yul\":5512:5692   */\n    tag_86:\n        /* \"#utility.yul\":5560:5637   */\n      0x4e487b7100000000000000000000000000000000000000000000000000000000\n        /* \"#utility.yul\":5557:5558   */\n      0x00\n        /* \"#utility.yul\":5550:5638   */\n      mstore\n        /* \"#utility.yul\":5657:5661   */\n      0x11\n        /* \"#utility.yul\":5654:5655   */\n      0x04\n        /* \"#utility.yul\":5647:5662   */\n      mstore\n        /* \"#utility.yul\":5681:5685   */\n      0x24\n        /* \"#utility.yul\":5678:5679   */\n      0x00\n        /* \"#utility.yul\":5671:5686   */\n      revert\n        /* \"#utility.yul\":5698:5892   */\n    tag_43:\n        /* \"#utility.yul\":5738:5742   */\n      0x00\n        /* \"#utility.yul\":5758:5778   */\n      tag_158\n        /* \"#utility.yul\":5776:5777   */\n      dup3\n        /* \"#utility.yul\":5758:5778   */\n      tag_73\n      jump\t// in\n    tag_158:\n        /* \"#utility.yul\":5753:5778   */\n      swap2\n      pop\n        /* \"#utility.yul\":5792:5812   */\n      tag_159\n        /* \"#utility.yul\":5810:5811   */\n      dup4\n        /* \"#utility.yul\":5792:5812   */\n      tag_73\n      jump\t// in\n    tag_159:\n        /* \"#utility.yul\":5787:5812   */\n      swap3\n      pop\n        /* \"#utility.yul\":5836:5837   */\n      dup3\n        /* \"#utility.yul\":5833:5834   */\n      dup3\n        /* \"#utility.yul\":5829:5838   */\n      sub\n        /* \"#utility.yul\":5821:5838   */\n      swap1\n      pop\n        /* \"#utility.yul\":5860:5861   */\n      dup2\n        /* \"#utility.yul\":5854:5858   */\n      dup2\n        /* \"#utility.yul\":5851:5862   */\n      gt\n        /* \"#utility.yul\":5848:5885   */\n      iszero\n      tag_160\n      jumpi\n        /* \"#utility.yul\":5865:5883   */\n      tag_161\n      tag_86\n      jump\t// in\n    tag_161:\n        /* \"#utility.yul\":5848:5885   */\n    tag_160:\n        /* \"#utility.yul\":5698:5892   */\n      swap3\n      swap2\n      pop\n      pop\n      jump\t// out\n        /* \"#utility.yul\":5898:6089   */\n    tag_45:\n        /* \"#utility.yul\":5938:5941   */\n      0x00\n        /* \"#utility.yul\":5957:5977   */\n      tag_163\n        /* \"#utility.yul\":5975:5976   */\n      dup3\n        /* \"#utility.yul\":5957:5977   */\n      tag_73\n      jump\t// in\n    tag_163:\n        /* \"#utility.yul\":5952:5977   */\n      swap2\n      pop\n        /* \"#utility.yul\":5991:6011   */\n      tag_164\n        /* \"#utility.yul\":6009:6010   */\n      dup4\n        /* \"#utility.yul\":5991:6011   */\n      tag_73\n      jump\t// in\n    tag_164:\n        /* \"#utility.yul\":5986:6011   */\n      swap3\n      pop\n        /* \"#utility.yul\":6034:6035   */\n      dup3\n        /* \"#utility.yul\":6031:6032   */\n      dup3\n        /* \"#utility.yul\":6027:6036   */\n      add\n        /* \"#utility.yul\":6020:6036   */\n      swap1\n      pop\n        /* \"#utility.yul\":6055:6058   */\n      dup1\n        /* \"#utility.yul\":6052:6053   */\n      dup3\n        /* \"#utility.yul\":6049:6059   */\n      gt\n        /* \"#utility.yul\":6046:6082   */\n      iszero\n      tag_165\n      jumpi\n        /* \"#utility.yul\":6062:6080   */\n      tag_166\n      tag_86\n      jump\t// in\n    tag_166:\n        /* \"#utility.yul\":6046:6082   */\n    tag_165:\n        /* \"#utility.yul\":5898:6089   */\n      swap3\n      swap2\n      pop\n      pop\n      jump\t// out\n        /* \"#utility.yul\":6095:6328   */\n    tag_51:\n        /* \"#utility.yul\":6134:6137   */\n      0x00\n        /* \"#utility.yul\":6157:6181   */\n      tag_168\n        /* \"#utility.yul\":6175:6180   */\n      dup3\n        /* \"#utility.yul\":6157:6181   */\n      tag_73\n      jump\t// in\n    tag_168:\n        /* \"#utility.yul\":6148:6181   */\n      swap2\n      pop\n        /* \"#utility.yul\":6203:6269   */\n      0xffffffffffffffffffffffffffffffffffffffffffffffffffffffffffffffff\n        /* \"#utility.yul\":6196:6201   */\n      dup3\n        /* \"#utility.yul\":6193:6270   */\n      sub\n        /* \"#utility.yul\":6190:6293   */\n      tag_169\n      jumpi\n        /* \"#utility.yul\":6273:6291   */\n      tag_170\n      tag_86\n      jump\t// in\n    tag_170:\n        /* \"#utility.yul\":6190:6293   */\n    tag_169:\n        /* \"#utility.yul\":6320:6321   */\n      0x01\n        /* \"#utility.yul\":6313:6318   */\n      dup3\n        /* \"#utility.yul\":6309:6322   */\n      add\n        /* \"#utility.yul\":6302:6322   */\n      swap1\n      pop\n        /* \"#utility.yul\":6095:6328   */\n      swap2\n      swap1\n      pop\n      jump\t// out\n        /* \"#utility.yul\":6334:6413   */\n    tag_87:\n        /* \"#utility.yul\":6373:6380   */\n      0x00\n        /* \"#utility.yul\":6402:6407   */\n      dup2\n        /* \"#utility.yul\":6391:6407   */\n      swap1\n      pop\n        /* \"#utility.yul\":6334:6413   */\n      swap2\n      swap1\n      pop\n      jump\t// out\n        /* \"#utility.yul\":6419:6576   */\n    tag_88:\n        /* \"#utility.yul\":6524:6569   */\n      tag_173\n        /* \"#utility.yul\":6544:6568   */\n      tag_174\n        /* \"#utility.yul\":6562:6567   */\n      dup3\n        /* \"#utility.yul\":6544:6568   */\n      tag_73\n      jump\t// in\n    tag_174:\n        /* \"#utility.yul\":6524:6569   */\n      tag_87\n      jump\t// in\n    tag_173:\n        /* \"#utility.yul\":6519:6522   */\n      dup3\n        /* \"#utility.yul\":6512:6570   */\n      mstore\n        /* \"#utility.yul\":6419:6576   */\n      pop\n      pop\n      jump\t// out\n        /* \"#utility.yul\":6582:6678   */\n    tag_89:\n        /* \"#utility.yul\":6616:6624   */\n      0x00\n        /* \"#utility.yul\":6665:6670   */\n      dup2\n        /* \"#utility.yul\":6660:6663   */\n      0xe0\n        /* \"#utility.yul\":6656:6671   */\n      shl\n        /* \"#utility.yul\":6635:6671   */\n      swap1\n      pop\n        /* \"#utility.yul\":6582:6678   */\n      swap2\n      swap1\n      pop\n      jump\t// out\n        /* \"#utility.yul\":6684:6778   */\n    tag_90:\n        /* \"#utility.yul\":6722:6729   */\n      0x00\n        /* \"#utility.yul\":6751:6772   */\n      tag_177\n        /* \"#utility.yul\":6766:6771   */\n      dup3\n        /* \"#utility.yul\":6751:6772   */\n      tag_89\n      jump\t// in\n    tag_177:\n        /* \"#utility.yul\":6740:6772   */\n      swap1\n      pop\n        /* \"#utility.yul\":6684:6778   */\n      swap2\n      swap1\n      pop\n      jump\t// out\n        /* \"#utility.yul\":6784:6937   */\n    tag_91:\n        /* \"#utility.yul\":6887:6930   */\n      tag_179\n        /* \"#utility.yul\":6906:6929   */\n      tag_180\n        /* \"#utility.yul\":6923:6928   */\n      dup3\n        /* \"#utility.yul\":6906:6929   */\n      tag_76\n      jump\t// in\n    tag_180:\n        /* \"#utility.yul\":6887:6930   */\n      tag_90\n      jump\t// in\n    tag_179:\n        /* \"#utility.yul\":6882:6885   */\n      dup3\n        /* \"#utility.yul\":6875:6931   */\n      mstore\n        /* \"#utility.yul\":6784:6937   */\n      pop\n      pop\n      jump\t// out\n        /* \"#utility.yul\":6943:7476   */\n    tag_60:\n        /* \"#utility.yul\":7109:7112   */\n      0x00\n        /* \"#utility.yul\":7124:7199   */\n      tag_182\n        /* \"#utility.yul\":7195:7198   */\n      dup3\n        /* \"#utility.yul\":7186:7192   */\n      dup7\n        /* \"#utility.yul\":7124:7199   */\n      tag_88\n      jump\t// in\n    tag_182:\n        /* \"#utility.yul\":7224:7226   */\n      0x20\n        /* \"#utility.yul\":7219:7222   */\n      dup3\n        /* \"#utility.yul\":7215:7227   */\n      add\n        /* \"#utility.yul\":7208:7227   */\n      swap2\n      pop\n        /* \"#utility.yul\":7237:7310   */\n      tag_183\n        /* \"#utility.yul\":7306:7309   */\n      dup3\n        /* \"#utility.yul\":7297:7303   */\n      dup6\n        /* \"#utility.yul\":7237:7310   */\n      tag_91\n      jump\t// in\n    tag_183:\n        /* \"#utility.yul\":7335:7336   */\n      0x04\n        /* \"#utility.yul\":7330:7333   */\n      dup3\n        /* \"#utility.yul\":7326:7337   */\n      add\n        /* \"#utility.yul\":7319:7337   */\n      swap2\n      pop\n        /* \"#utility.yul\":7347:7422   */\n      tag_184\n        /* \"#utility.yul\":7418:7421   */\n      dup3\n        /* \"#utility.yul\":7409:7415   */\n      dup5\n        /* \"#utility.yul\":7347:7422   */\n      tag_80\n      jump\t// in\n    tag_184:\n        /* \"#utility.yul\":7447:7449   */\n      0x20\n        /* \"#utility.yul\":7442:7445   */\n      dup3\n        /* \"#utility.yul\":7438:7450   */\n      add\n        /* \"#utility.yul\":7431:7450   */\n      swap2\n      pop\n        /* \"#utility.yul\":7467:7470   */\n      dup2\n        /* \"#utility.yul\":7460:7470   */\n      swap1\n      pop\n        /* \"#utility.yul\":6943:7476   */\n      swap5\n      swap4\n      pop\n      pop\n      pop\n      pop\n      jump\t// out\n\n    auxdata: 0xa2646970667358221220783484063adc6e98823041e6be5e3e38cccc1de830944ae4a9d57d74b277f8d764736f6c634300081a0033\n}\n",
				"bytecode": {
					"linkReferences": {},
					"object": "6080604052348015600e575f80fd5b5061086a8061001c5f395ff3fe608060405234801561000f575f80fd5b506004361061003f575f3560e01c8063377d2778146100435780634ec9d9a3146100735780637abd1920146100a3575b5f80fd5b61005d6004803603810190610058919061047d565b6100d3565b60405161006a91906104c2565b60405180910390f35b61008d6004803603810190610088919061050e565b61011c565b60405161009a91906104c2565b60405180910390f35b6100bd60048036038101906100b89190610585565b6102ff565b6040516100ca91906104c2565b60405180910390f35b5f816007819055507f7a23ff858b2c8a8c6efb2f031504172edceb8544de64bcf8642527ef9e579837600160405161010b91906104c2565b60405180910390a160019050919050565b5f805f90505f6002846040516020016101359190610609565b6040516020818303038152906040526040516101519190610675565b602060405180830381855afa15801561016c573d5f803e3d5ffd5b5050506040513d601f19601f8201168201806040525081019061018f919061069f565b905060075481146101db577f718653f3e56f280849da8b5b309f4664be125f81f3f3074d4bb5da989f9769cd5f6040516101c991906104c2565b60405180910390a15f925050506102f9565b5f851180156101ec57506004548510155b80156101fa57506006548511155b61023f577f718653f3e56f280849da8b5b309f4664be125f81f3f3074d4bb5da989f9769cd5f60405161022d91906104c2565b60405180910390a15f925050506102f9565b836005819055505f60018660065461025791906106f7565b610261919061072a565b90505b60045460065461027491906106f7565b81116102bb5761028681600554610397565b6005819055506005545f54036102a857845f8190555085600481905550600192505b80806102b39061075d565b915050610264565b507f718653f3e56f280849da8b5b309f4664be125f81f3f3074d4bb5da989f9769cd826040516102eb91906104c2565b60405180910390a181925050505b92915050565b5f815f8190555084600381905550600354600481905550836002819055508260015f6101000a81548163ffffffff021916908363ffffffff16021790555060025460035461034d919061072a565b6006819055507fb45a9ce1967908c1f14416e3f7b42d2e8028366bd17869b344dd26960f0c0e61600160405161038391906104c2565b60405180910390a160019050949350505050565b5f80836002546003546103aa919061072a565b6103b491906106f7565b90505f60028260015f9054906101000a900463ffffffff16866040516020016103df939291906107f8565b6040516020818303038152906040526040516103fb9190610675565b602060405180830381855afa158015610416573d5f803e3d5ffd5b5050506040513d601f19601f82011682018060405250810190610439919061069f565b9050809250505092915050565b5f80fd5b5f819050919050565b61045c8161044a565b8114610466575f80fd5b50565b5f8135905061047781610453565b92915050565b5f6020828403121561049257610491610446565b5b5f61049f84828501610469565b91505092915050565b5f8115159050919050565b6104bc816104a8565b82525050565b5f6020820190506104d55f8301846104b3565b92915050565b5f819050919050565b6104ed816104db565b81146104f7575f80fd5b50565b5f81359050610508816104e4565b92915050565b5f806040838503121561052457610523610446565b5b5f610531858286016104fa565b925050602061054285828601610469565b9150509250929050565b5f63ffffffff82169050919050565b6105648161054c565b811461056e575f80fd5b50565b5f8135905061057f8161055b565b92915050565b5f805f806080858703121561059d5761059c610446565b5b5f6105aa878288016104fa565b94505060206105bb878288016104fa565b93505060406105cc87828801610571565b92505060606105dd87828801610469565b91505092959194509250565b5f819050919050565b6106036105fe8261044a565b6105e9565b82525050565b5f61061482846105f2565b60208201915081905092915050565b5f81519050919050565b5f81905092915050565b8281835e5f83830152505050565b5f61064f82610623565b610659818561062d565b9350610669818560208601610637565b80840191505092915050565b5f6106808284610645565b915081905092915050565b5f8151905061069981610453565b92915050565b5f602082840312156106b4576106b3610446565b5b5f6106c18482850161068b565b91505092915050565b7f4e487b71000000000000000000000000000000000000000000000000000000005f52601160045260245ffd5b5f610701826104db565b915061070c836104db565b9250828203905081811115610724576107236106ca565b5b92915050565b5f610734826104db565b915061073f836104db565b9250828201905080821115610757576107566106ca565b5b92915050565b5f610767826104db565b91507fffffffffffffffffffffffffffffffffffffffffffffffffffffffffffffffff8203610799576107986106ca565b5b600182019050919050565b5f819050919050565b6107be6107b9826104db565b6107a4565b82525050565b5f8160e01b9050919050565b5f6107da826107c4565b9050919050565b6107f26107ed8261054c565b6107d0565b82525050565b5f61080382866107ad565b60208201915061081382856107e1565b60048201915061082382846105f2565b60208201915081905094935050505056fea2646970667358221220783484063adc6e98823041e6be5e3e38cccc1de830944ae4a9d57d74b277f8d764736f6c634300081a0033",
					"opcodes": "PUSH1 0x80 PUSH1 0x40 MSTORE CALLVALUE DUP1 ISZERO PUSH1 0xE JUMPI PUSH0 DUP1 REVERT JUMPDEST POP PUSH2 0x86A DUP1 PUSH2 0x1C PUSH0 CODECOPY PUSH0 RETURN INVALID PUSH1 0x80 PUSH1 0x40 MSTORE CALLVALUE DUP1 ISZERO PUSH2 0xF JUMPI PUSH0 DUP1 REVERT JUMPDEST POP PUSH1 0x4 CALLDATASIZE LT PUSH2 0x3F JUMPI PUSH0 CALLDATALOAD PUSH1 0xE0 SHR DUP1 PUSH4 0x377D2778 EQ PUSH2 0x43 JUMPI DUP1 PUSH4 0x4EC9D9A3 EQ PUSH2 0x73 JUMPI DUP1 PUSH4 0x7ABD1920 EQ PUSH2 0xA3 JUMPI JUMPDEST PUSH0 DUP1 REVERT JUMPDEST PUSH2 0x5D PUSH1 0x4 DUP1 CALLDATASIZE SUB DUP2 ADD SWAP1 PUSH2 0x58 SWAP2 SWAP1 PUSH2 0x47D JUMP JUMPDEST PUSH2 0xD3 JUMP JUMPDEST PUSH1 0x40 MLOAD PUSH2 0x6A SWAP2 SWAP1 PUSH2 0x4C2 JUMP JUMPDEST PUSH1 0x40 MLOAD DUP1 SWAP2 SUB SWAP1 RETURN JUMPDEST PUSH2 0x8D PUSH1 0x4 DUP1 CALLDATASIZE SUB DUP2 ADD SWAP1 PUSH2 0x88 SWAP2 SWAP1 PUSH2 0x50E JUMP JUMPDEST PUSH2 0x11C JUMP JUMPDEST PUSH1 0x40 MLOAD PUSH2 0x9A SWAP2 SWAP1 PUSH2 0x4C2 JUMP JUMPDEST PUSH1 0x40 MLOAD DUP1 SWAP2 SUB SWAP1 RETURN JUMPDEST PUSH2 0xBD PUSH1 0x4 DUP1 CALLDATASIZE SUB DUP2 ADD SWAP1 PUSH2 0xB8 SWAP2 SWAP1 PUSH2 0x585 JUMP JUMPDEST PUSH2 0x2FF JUMP JUMPDEST PUSH1 0x40 MLOAD PUSH2 0xCA SWAP2 SWAP1 PUSH2 0x4C2 JUMP JUMPDEST PUSH1 0x40 MLOAD DUP1 SWAP2 SUB SWAP1 RETURN JUMPDEST PUSH0 DUP2 PUSH1 0x7 DUP2 SWAP1 SSTORE POP PUSH32 0x7A23FF858B2C8A8C6EFB2F031504172EDCEB8544DE64BCF8642527EF9E579837 PUSH1 0x1 PUSH1 0x40 MLOAD PUSH2 0x10B SWAP2 SWAP1 PUSH2 0x4C2 JUMP JUMPDEST PUSH1 0x40 MLOAD DUP1 SWAP2 SUB SWAP1 LOG1 PUSH1 0x1 SWAP1 POP SWAP2 SWAP1 POP JUMP JUMPDEST PUSH0 DUP1 PUSH0 SWAP1 POP PUSH0 PUSH1 0x2 DUP5 PUSH1 0x40 MLOAD PUSH1 0x20 ADD PUSH2 0x135 SWAP2 SWAP1 PUSH2 0x609 JUMP JUMPDEST PUSH1 0x40 MLOAD PUSH1 0x20 DUP2 DUP4 SUB SUB DUP2 MSTORE SWAP1 PUSH1 0x40 MSTORE PUSH1 0x40 MLOAD PUSH2 0x151 SWAP2 SWAP1 PUSH2 0x675 JUMP JUMPDEST PUSH1 0x20 PUSH1 0x40 MLOAD DUP1 DUP4 SUB DUP2 DUP6 GAS STATICCALL ISZERO DUP1 ISZERO PUSH2 0x16C JUMPI RETURNDATASIZE PUSH0 DUP1 RETURNDATACOPY RETURNDATASIZE PUSH0 REVERT JUMPDEST POP POP POP PUSH1 0x40 MLOAD RETURNDATASIZE PUSH1 0x1F NOT PUSH1 0x1F DUP3 ADD AND DUP3 ADD DUP1 PUSH1 0x40 MSTORE POP DUP2 ADD SWAP1 PUSH2 0x18F SWAP2 SWAP1 PUSH2 0x69F JUMP JUMPDEST SWAP1 POP PUSH1 0x7 SLOAD DUP2 EQ PUSH2 0x1DB JUMPI PUSH32 0x718653F3E56F280849DA8B5B309F4664BE125F81F3F3074D4BB5DA989F9769CD PUSH0 PUSH1 0x40 MLOAD PUSH2 0x1C9 SWAP2 SWAP1 PUSH2 0x4C2 JUMP JUMPDEST PUSH1 0x40 MLOAD DUP1 SWAP2 SUB SWAP1 LOG1 PUSH0 SWAP3 POP POP POP PUSH2 0x2F9 JUMP JUMPDEST PUSH0 DUP6 GT DUP1 ISZERO PUSH2 0x1EC JUMPI POP PUSH1 0x4 SLOAD DUP6 LT ISZERO JUMPDEST DUP1 ISZERO PUSH2 0x1FA JUMPI POP PUSH1 0x6 SLOAD DUP6 GT ISZERO JUMPDEST PUSH2 0x23F JUMPI PUSH32 0x718653F3E56F280849DA8B5B309F4664BE125F81F3F3074D4BB5DA989F9769CD PUSH0 PUSH1 0x40 MLOAD PUSH2 0x22D SWAP2 SWAP1 PUSH2 0x4C2 JUMP JUMPDEST PUSH1 0x40 MLOAD DUP1 SWAP2 SUB SWAP1 LOG1 PUSH0 SWAP3 POP POP POP PUSH2 0x2F9 JUMP JUMPDEST DUP4 PUSH1 0x5 DUP2 SWAP1 SSTORE POP PUSH0 PUSH1 0x1 DUP7 PUSH1 0x6 SLOAD PUSH2 0x257 SWAP2 SWAP1 PUSH2 0x6F7 JUMP JUMPDEST PUSH2 0x261 SWAP2 SWAP1 PUSH2 0x72A JUMP JUMPDEST SWAP1 POP JUMPDEST PUSH1 0x4 SLOAD PUSH1 0x6 SLOAD PUSH2 0x274 SWAP2 SWAP1 PUSH2 0x6F7 JUMP JUMPDEST DUP2 GT PUSH2 0x2BB JUMPI PUSH2 0x286 DUP2 PUSH1 0x5 SLOAD PUSH2 0x397 JUMP JUMPDEST PUSH1 0x5 DUP2 SWAP1 SSTORE POP PUSH1 0x5 SLOAD PUSH0 SLOAD SUB PUSH2 0x2A8 JUMPI DUP5 PUSH0 DUP2 SWAP1 SSTORE POP DUP6 PUSH1 0x4 DUP2 SWAP1 SSTORE POP PUSH1 0x1 SWAP3 POP JUMPDEST DUP1 DUP1 PUSH2 0x2B3 SWAP1 PUSH2 0x75D JUMP JUMPDEST SWAP2 POP POP PUSH2 0x264 JUMP JUMPDEST POP PUSH32 0x718653F3E56F280849DA8B5B309F4664BE125F81F3F3074D4BB5DA989F9769CD DUP3 PUSH1 0x40 MLOAD PUSH2 0x2EB SWAP2 SWAP1 PUSH2 0x4C2 JUMP JUMPDEST PUSH1 0x40 MLOAD DUP1 SWAP2 SUB SWAP1 LOG1 DUP2 SWAP3 POP POP POP JUMPDEST SWAP3 SWAP2 POP POP JUMP JUMPDEST PUSH0 DUP2 PUSH0 DUP2 SWAP1 SSTORE POP DUP5 PUSH1 0x3 DUP2 SWAP1 SSTORE POP PUSH1 0x3 SLOAD PUSH1 0x4 DUP2 SWAP1 SSTORE POP DUP4 PUSH1 0x2 DUP2 SWAP1 SSTORE POP DUP3 PUSH1 0x1 PUSH0 PUSH2 0x100 EXP DUP2 SLOAD DUP2 PUSH4 0xFFFFFFFF MUL NOT AND SWAP1 DUP4 PUSH4 0xFFFFFFFF AND MUL OR SWAP1 SSTORE POP PUSH1 0x2 SLOAD PUSH1 0x3 SLOAD PUSH2 0x34D SWAP2 SWAP1 PUSH2 0x72A JUMP JUMPDEST PUSH1 0x6 DUP2 SWAP1 SSTORE POP PUSH32 0xB45A9CE1967908C1F14416E3F7B42D2E8028366BD17869B344DD26960F0C0E61 PUSH1 0x1 PUSH1 0x40 MLOAD PUSH2 0x383 SWAP2 SWAP1 PUSH2 0x4C2 JUMP JUMPDEST PUSH1 0x40 MLOAD DUP1 SWAP2 SUB SWAP1 LOG1 PUSH1 0x1 SWAP1 POP SWAP5 SWAP4 POP POP POP POP JUMP JUMPDEST PUSH0 DUP1 DUP4 PUSH1 0x2 SLOAD PUSH1 0x3 SLOAD PUSH2 0x3AA SWAP2 SWAP1 PUSH2 0x72A JUMP JUMPDEST PUSH2 0x3B4 SWAP2 SWAP1 PUSH2 0x6F7 JUMP JUMPDEST SWAP1 POP PUSH0 PUSH1 0x2 DUP3 PUSH1 0x1 PUSH0 SWAP1 SLOAD SWAP1 PUSH2 0x100 EXP SWAP1 DIV PUSH4 0xFFFFFFFF AND DUP7 PUSH1 0x40 MLOAD PUSH1 0x20 ADD PUSH2 0x3DF SWAP4 SWAP3 SWAP2 SWAP1 PUSH2 0x7F8 JUMP JUMPDEST PUSH1 0x40 MLOAD PUSH1 0x20 DUP2 DUP4 SUB SUB DUP2 MSTORE SWAP1 PUSH1 0x40 MSTORE PUSH1 0x40 MLOAD PUSH2 0x3FB SWAP2 SWAP1 PUSH2 0x675 JUMP JUMPDEST PUSH1 0x20 PUSH1 0x40 MLOAD DUP1 DUP4 SUB DUP2 DUP6 GAS STATICCALL ISZERO DUP1 ISZERO PUSH2 0x416 JUMPI RETURNDATASIZE PUSH0 DUP1 RETURNDATACOPY RETURNDATASIZE PUSH0 REVERT JUMPDEST POP POP POP PUSH1 0x40 MLOAD RETURNDATASIZE PUSH1 0x1F NOT PUSH1 0x1F DUP3 ADD AND DUP3 ADD DUP1 PUSH1 0x40 MSTORE POP DUP2 ADD SWAP1 PUSH2 0x439 SWAP2 SWAP1 PUSH2 0x69F JUMP JUMPDEST SWAP1 POP DUP1 SWAP3 POP POP POP SWAP3 SWAP2 POP POP JUMP JUMPDEST PUSH0 DUP1 REVERT JUMPDEST PUSH0 DUP2 SWAP1 POP SWAP2 SWAP1 POP JUMP JUMPDEST PUSH2 0x45C DUP2 PUSH2 0x44A JUMP JUMPDEST DUP2 EQ PUSH2 0x466 JUMPI PUSH0 DUP1 REVERT JUMPDEST POP JUMP JUMPDEST PUSH0 DUP2 CALLDATALOAD SWAP1 POP PUSH2 0x477 DUP2 PUSH2 0x453 JUMP JUMPDEST SWAP3 SWAP2 POP POP JUMP JUMPDEST PUSH0 PUSH1 0x20 DUP3 DUP5 SUB SLT ISZERO PUSH2 0x492 JUMPI PUSH2 0x491 PUSH2 0x446 JUMP JUMPDEST JUMPDEST PUSH0 PUSH2 0x49F DUP5 DUP3 DUP6 ADD PUSH2 0x469 JUMP JUMPDEST SWAP2 POP POP SWAP3 SWAP2 POP POP JUMP JUMPDEST PUSH0 DUP2 ISZERO ISZERO SWAP1 POP SWAP2 SWAP1 POP JUMP JUMPDEST PUSH2 0x4BC DUP2 PUSH2 0x4A8 JUMP JUMPDEST DUP3 MSTORE POP POP JUMP JUMPDEST PUSH0 PUSH1 0x20 DUP3 ADD SWAP1 POP PUSH2 0x4D5 PUSH0 DUP4 ADD DUP5 PUSH2 0x4B3 JUMP JUMPDEST SWAP3 SWAP2 POP POP JUMP JUMPDEST PUSH0 DUP2 SWAP1 POP SWAP2 SWAP1 POP JUMP JUMPDEST PUSH2 0x4ED DUP2 PUSH2 0x4DB JUMP JUMPDEST DUP2 EQ PUSH2 0x4F7 JUMPI PUSH0 DUP1 REVERT JUMPDEST POP JUMP JUMPDEST PUSH0 DUP2 CALLDATALOAD SWAP1 POP PUSH2 0x508 DUP2 PUSH2 0x4E4 JUMP JUMPDEST SWAP3 SWAP2 POP POP JUMP JUMPDEST PUSH0 DUP1 PUSH1 0x40 DUP4 DUP6 SUB SLT ISZERO PUSH2 0x524 JUMPI PUSH2 0x523 PUSH2 0x446 JUMP JUMPDEST JUMPDEST PUSH0 PUSH2 0x531 DUP6 DUP3 DUP7 ADD PUSH2 0x4FA JUMP JUMPDEST SWAP3 POP POP PUSH1 0x20 PUSH2 0x542 DUP6 DUP3 DUP7 ADD PUSH2 0x469 JUMP JUMPDEST SWAP2 POP POP SWAP3 POP SWAP3 SWAP1 POP JUMP JUMPDEST PUSH0 PUSH4 0xFFFFFFFF DUP3 AND SWAP1 POP SWAP2 SWAP1 POP JUMP JUMPDEST PUSH2 0x564 DUP2 PUSH2 0x54C JUMP JUMPDEST DUP2 EQ PUSH2 0x56E JUMPI PUSH0 DUP1 REVERT JUMPDEST POP JUMP JUMPDEST PUSH0 DUP2 CALLDATALOAD SWAP1 POP PUSH2 0x57F DUP2 PUSH2 0x55B JUMP JUMPDEST SWAP3 SWAP2 POP POP JUMP JUMPDEST PUSH0 DUP1 PUSH0 DUP1 PUSH1 0x80 DUP6 DUP8 SUB SLT ISZERO PUSH2 0x59D JUMPI PUSH2 0x59C PUSH2 0x446 JUMP JUMPDEST JUMPDEST PUSH0 PUSH2 0x5AA DUP8 DUP3 DUP9 ADD PUSH2 0x4FA JUMP JUMPDEST SWAP5 POP POP PUSH1 0x20 PUSH2 0x5BB DUP8 DUP3 DUP9 ADD PUSH2 0x4FA JUMP JUMPDEST SWAP4 POP POP PUSH1 0x40 PUSH2 0x5CC DUP8 DUP3 DUP9 ADD PUSH2 0x571 JUMP JUMPDEST SWAP3 POP POP PUSH1 0x60 PUSH2 0x5DD DUP8 DUP3 DUP9 ADD PUSH2 0x469 JUMP JUMPDEST SWAP2 POP POP SWAP3 SWAP6 SWAP2 SWAP5 POP SWAP3 POP JUMP JUMPDEST PUSH0 DUP2 SWAP1 POP SWAP2 SWAP1 POP JUMP JUMPDEST PUSH2 0x603 PUSH2 0x5FE DUP3 PUSH2 0x44A JUMP JUMPDEST PUSH2 0x5E9 JUMP JUMPDEST DUP3 MSTORE POP POP JUMP JUMPDEST PUSH0 PUSH2 0x614 DUP3 DUP5 PUSH2 0x5F2 JUMP JUMPDEST PUSH1 0x20 DUP3 ADD SWAP2 POP DUP2 SWAP1 POP SWAP3 SWAP2 POP POP JUMP JUMPDEST PUSH0 DUP2 MLOAD SWAP1 POP SWAP2 SWAP1 POP JUMP JUMPDEST PUSH0 DUP2 SWAP1 POP SWAP3 SWAP2 POP POP JUMP JUMPDEST DUP3 DUP2 DUP4 MCOPY PUSH0 DUP4 DUP4 ADD MSTORE POP POP POP JUMP JUMPDEST PUSH0 PUSH2 0x64F DUP3 PUSH2 0x623 JUMP JUMPDEST PUSH2 0x659 DUP2 DUP6 PUSH2 0x62D JUMP JUMPDEST SWAP4 POP PUSH2 0x669 DUP2 DUP6 PUSH1 0x20 DUP7 ADD PUSH2 0x637 JUMP JUMPDEST DUP1 DUP5 ADD SWAP2 POP POP SWAP3 SWAP2 POP POP JUMP JUMPDEST PUSH0 PUSH2 0x680 DUP3 DUP5 PUSH2 0x645 JUMP JUMPDEST SWAP2 POP DUP2 SWAP1 POP SWAP3 SWAP2 POP POP JUMP JUMPDEST PUSH0 DUP2 MLOAD SWAP1 POP PUSH2 0x699 DUP2 PUSH2 0x453 JUMP JUMPDEST SWAP3 SWAP2 POP POP JUMP JUMPDEST PUSH0 PUSH1 0x20 DUP3 DUP5 SUB SLT ISZERO PUSH2 0x6B4 JUMPI PUSH2 0x6B3 PUSH2 0x446 JUMP JUMPDEST JUMPDEST PUSH0 PUSH2 0x6C1 DUP5 DUP3 DUP6 ADD PUSH2 0x68B JUMP JUMPDEST SWAP2 POP POP SWAP3 SWAP2 POP POP JUMP JUMPDEST PUSH32 0x4E487B7100000000000000000000000000000000000000000000000000000000 PUSH0 MSTORE PUSH1 0x11 PUSH1 0x4 MSTORE PUSH1 0x24 PUSH0 REVERT JUMPDEST PUSH0 PUSH2 0x701 DUP3 PUSH2 0x4DB JUMP JUMPDEST SWAP2 POP PUSH2 0x70C DUP4 PUSH2 0x4DB JUMP JUMPDEST SWAP3 POP DUP3 DUP3 SUB SWAP1 POP DUP2 DUP2 GT ISZERO PUSH2 0x724 JUMPI PUSH2 0x723 PUSH2 0x6CA JUMP JUMPDEST JUMPDEST SWAP3 SWAP2 POP POP JUMP JUMPDEST PUSH0 PUSH2 0x734 DUP3 PUSH2 0x4DB JUMP JUMPDEST SWAP2 POP PUSH2 0x73F DUP4 PUSH2 0x4DB JUMP JUMPDEST SWAP3 POP DUP3 DUP3 ADD SWAP1 POP DUP1 DUP3 GT ISZERO PUSH2 0x757 JUMPI PUSH2 0x756 PUSH2 0x6CA JUMP JUMPDEST JUMPDEST SWAP3 SWAP2 POP POP JUMP JUMPDEST PUSH0 PUSH2 0x767 DUP3 PUSH2 0x4DB JUMP JUMPDEST SWAP2 POP PUSH32 0xFFFFFFFFFFFFFFFFFFFFFFFFFFFFFFFFFFFFFFFFFFFFFFFFFFFFFFFFFFFFFFFF DUP3 SUB PUSH2 0x799 JUMPI PUSH2 0x798 PUSH2 0x6CA JUMP JUMPDEST JUMPDEST PUSH1 0x1 DUP3 ADD SWAP1 POP SWAP2 SWAP1 POP JUMP JUMPDEST PUSH0 DUP2 SWAP1 POP SWAP2 SWAP1 POP JUMP JUMPDEST PUSH2 0x7BE PUSH2 0x7B9 DUP3 PUSH2 0x4DB JUMP JUMPDEST PUSH2 0x7A4 JUMP JUMPDEST DUP3 MSTORE POP POP JUMP JUMPDEST PUSH0 DUP2 PUSH1 0xE0 SHL SWAP1 POP SWAP2 SWAP1 POP JUMP JUMPDEST PUSH0 PUSH2 0x7DA DUP3 PUSH2 0x7C4 JUMP JUMPDEST SWAP1 POP SWAP2 SWAP1 POP JUMP JUMPDEST PUSH2 0x7F2 PUSH2 0x7ED DUP3 PUSH2 0x54C JUMP JUMPDEST PUSH2 0x7D0 JUMP JUMPDEST DUP3 MSTORE POP POP JUMP JUMPDEST PUSH0 PUSH2 0x803 DUP3 DUP7 PUSH2 0x7AD JUMP JUMPDEST PUSH1 0x20 DUP3 ADD SWAP2 POP PUSH2 0x813 DUP3 DUP6 PUSH2 0x7E1 JUMP JUMPDEST PUSH1 0x4 DUP3 ADD SWAP2 POP PUSH2 0x823 DUP3 DUP5 PUSH2 0x5F2 JUMP JUMPDEST PUSH1 0x20 DUP3 ADD SWAP2 POP DUP2 SWAP1 POP SWAP5 SWAP4 POP POP POP POP JUMP INVALID LOG2 PUSH5 0x6970667358 0x22 SLT KECCAK256 PUSH25 0x3484063ADC6E98823041E6BE5E3E38CCCC1DE830944AE4A9D5 PUSH30 0x74B277F8D764736F6C634300081A00330000000000000000000000000000 "
				},
				"gasEstimates": {
					"creation": {
						"codeDepositCost": "430800",
						"executionCost": "466",
						"totalCost": "431266"
					},
					"external": {
						"authenticate(uint256,bytes32)": "infinite",
						"storeCommitment(bytes32)": "infinite",
						"storeValues(uint256,uint256,uint32,bytes32)": "infinite"
					},
					"internal": {
						"generateHashFunction(uint256,bytes32)": "infinite"
					}
				},
				"methodIdentifiers": {
					"authenticate(uint256,bytes32)": "4ec9d9a3",
					"storeCommitment(bytes32)": "377d2778",
					"storeValues(uint256,uint256,uint32,bytes32)": "7abd1920"
				}
			},
			"storageLayout": {
				"storage": [
					{
						"astId": 3,
						"contract": "contracts/4_Deploy.sol:testDeploy",
						"label": "pprev",
						"offset": 0,
						"slot": "0",
						"type": "t_bytes32"
					},
					{
						"astId": 5,
						"contract": "contracts/4_Deploy.sol:testDeploy",
						"label": "id",
						"offset": 0,
						"slot": "1",
						"type": "t_uint32"
					},
					{
						"astId": 7,
						"contract": "contracts/4_Deploy.sol:testDeploy",
						"label": "k",
						"offset": 0,
						"slot": "2",
						"type": "t_uint256"
					},
					{
						"astId": 9,
						"contract": "contracts/4_Deploy.sol:testDeploy",
						"label": "tinit",
						"offset": 0,
						"slot": "3",
						"type": "t_uint256"
					},
					{
						"astId": 11,
						"contract": "contracts/4_Deploy.sol:testDeploy",
						"label": "tprev",
						"offset": 0,
						"slot": "4",
						"type": "t_uint256"
					},
					{
						"astId": 13,
						"contract": "contracts/4_Deploy.sol:testDeploy",
						"label": "pverify",
						"offset": 0,
						"slot": "5",
						"type": "t_bytes32"
					},
					{
						"astId": 15,
						"contract": "contracts/4_Deploy.sol:testDeploy",
						"label": "tmax",
						"offset": 0,
						"slot": "6",
						"type": "t_uint256"
					},
					{
						"astId": 17,
						"contract": "contracts/4_Deploy.sol:testDeploy",
						"label": "commitment",
						"offset": 0,
						"slot": "7",
						"type": "t_bytes32"
					}
				],
				"types": {
					"t_bytes32": {
						"encoding": "inplace",
						"label": "bytes32",
						"numberOfBytes": "32"
					},
					"t_uint256": {
						"encoding": "inplace",
						"label": "uint256",
						"numberOfBytes": "32"
					},
					"t_uint32": {
						"encoding": "inplace",
						"label": "uint32",
						"numberOfBytes": "4"
					}
				}
			},
			"userdoc": {
				"kind": "user",
				"methods": {},
				"version": 1
			}
		}
	}
}